:020000020000FC
:0200000019C025
:02001C00C8C05A
:1000340000010203040405060708090A0B0B0C0D52
:100044000E0F101111121314151516171818191A6A
:100054001B1B1C1D1D1E1F1F2021212223232424A2
:100064002525262727282829292A2A2B2B2C2C2DFD
:100074002D2D0FEF0DBF04E00EBF01E00093210111
:1000840098D23BD379D3D3D214D305D30CD134D45F
:100094009BD239D1C2D300E000930C0100930D012F
:1000A40000930F0100930E010093110100931001BE
:1000B4000093120100931301789496D376D324D03D
:1000C40000912101013019F0023069F0F8CFE0D13C
:1000D400F2D10BD242D2AFD0BFD026F4409113015B
:1000E400FAD2E894ECCF2F9310E00FD400912601BC
:1000F400069529E3020FC1D000912701069529E353
:10010400020FC6D02F91DBCF0F93189B02C00F9123
:100114000895189BFECF009121010395033021F02F
:100124000093210142D3F3CF01E0FACF0F921F9243
:10013400029F012D1F900F9008950F93002705D063
:1001440003950A30E1F70F9108950F9300270DD01E
:1001540003950436E1F70F9108950F93002705D016
:1001640003950A30E1F70F9108950F93002705D006
:1001740003950436E1F70F9108950F930027039533
:10018400043BE9F70F9108952F933F9321E43FEE49
:100194003A95F1F72A95E1F73F912F9108950F933E
:1001A40002E30A95F1F70F9108950F931F932F938C
:1001B4003F935F930F921F9200E006BD5FB70091DB
:1001C400000110910E0120910F018DD007E095D010
:1001D40000911101019530E40302100D211D33E05B
:1001E400259517953A95E1F720930F0110930E0189
:1001F4000091020110910D0120910C0174D007E0CF
:100204007CD000911001019530E40302100D211DF2
:1002140033E0259517953A95E1F720930C01109357
:100224000D015FBF68941F900F905F913F912F91D4
:100234001F910F9118951F930F932F930091130102
:100244001AE5010F24EB72DF1AE3010F10E015D059
:100254002F910F911F9108951F930F932F93009146
:1002640012011AE5010F24EB61DF1AE3010F10E01C
:100274000FD02F910F911F9108951093890000932F
:100284008800FCD215D308E863D27EDFCCD208956F
:1002940010938B0000938A00F1D20AD308EC58D251
:1002A40073DFC1D208950F9301E00093850000939A
:1002B400840008EE009387000BE00093860003EAB5
:1002C400009380000CE00093810000E0009389001B
:1002D4000EE60093880000E000938B000EE6009386
:1002E4008A000F91089507FD04C0100F0027201FF6
:1002F40003C0100F0FEF201F08952003202D109F1F
:10030400102D210D08950F931F932F933F935F9307
:10031400002711273327552720E14BE37CD1405890
:10032400040F4427141F4CE376D1340F4427541F81
:1003340014DF2A9591F724E016950795569537957D
:100344002A95D1F7005800931B0130931C01002714
:1003540011273327552720E14DE35DD14058040F81
:100364004427141F4EE357D1340F4427541FF5DE9E
:100374002A9591F724E016950795569537952A9571
:10038400D1F7005800931D0130931E010027112757
:100394003327552720E14FE33ED14058040F44272B
:1003A400141F40E438D1340F4427541FD6DE2A9555
:1003B40091F724E016950795569537952A95D1F728
:1003C400005C00931F01309320010027112733277D
:1003D400552720E143E41FD14058040F4427141F3C
:1003E40044E419D1340F4427541FB7DE2A9591F7FA
:1003F40024E016950795569537952A95D1F7005818
:100404000093150130931601002711273327552730
:1004140020E145E400D14058040F4427141F46E46A
:10042400FAD0340F4427541F98DE2A9591F724E01C
:1004340016950795569537952A95D1F70058009348
:10044400170130931801002711273327552720E17E
:1004540047E4E1D04058040F4427141F48E4DBD09C
:10046400340F4427541F79DE2A9591F724E016951A
:100474000795569537952A95D1F700580093190199
:1004840030931A015F913F912F911F910F9108951D
:100494004F930F9343E4BFD000911501401B409349
:1004A400000145E4B8D000911701401B40930201BC
:1004B4000F914F9108954F930F934BE3ACD000915C
:1004C4001B01401B409306014DE3A5D000911D0183
:1004D400401B409308014FE39ED000911F01401B35
:1004E40040930A010F914F9108950F931F932F93F7
:1004F40020910A01009106010DD000931001209172
:100504000A010091080106D0009311012F911F9157
:100514000F9108953F93332707FF02C0019531E0FF
:10052400021789F020F0102F022F212F326010E4DF
:10053400019F002D112D28D0E4E3F0E0E00D00240C
:10054400F01D049101C00DE231FF03C01AE5101B38
:10055400012F30FD01953F9108952F931F930F9321
:1005640020910F0110910E0104E0C7DE20931301C6
:1005740020910C0110910D0104E0BFDE20931201C3
:100584000F911F912F9108953F9333271124002435
:1005940003948894001F111F331F10F0321718F0B2
:1005A400321B089401C08894001C111C90F73F91E1
:1005B40008950F9306E004B908E007B900EF04605A
:1005C40008600AB90F9108953ED040ED4CD04BE637
:1005D4004AD040E048D041D036D040ED44D04AE142
:1005E40042D042E040D039D02ED040ED3CD04BE157
:1005F4003AD040E038D031D026D040ED34D04CE170
:1006040032D040E030D029D0439845E704D0483672
:1006140009F4439A08954F9316D040ED24D04F9196
:1006240022D011D041ED1FD02AD017D008950F93B6
:1006340000E00093B9000FE00093B80004E00093D9
:10064400BC000F9108950F9304EA0093BC0000913D
:10065400BC0007FFFCCF0F9108950F9304E90093AA
:10066400BC000F9108950F934093BB0004E80093DE
:10067400BC000091BC0007FFFCCF0F9108950F93BD
:1006840004E80093BC000091BC0007FFFCCF40913C
:10069400BB000F9108950F9300E004BD05E005BD74
:1006A40000E907BD02E000936E0000E006BD0F9173
:1006B40008950F9300E00093C50007E70093C4007A
:1006C40006E00093C20008E10093C10000E000933B
:1006D400C0000F9108950F930091C00005FFFCCF57
:1006E4004093C6000F9108950F930091C00007FF37
:1006F40002C04091C6000F9108950F9345DD44DD7B
:1007040043DD00E31BD040DD00E318D03DDD00E312
:1007140015D03ADD00E212D037DD08E219D034DD1D
:1007240008E016D031DD01E013D02EDD0CE010D04E
:100734002BDD06E00DD028DD0F9108951F931BB12A
:100744001F70102B1BB95B9A5B9829DD1F910895CC
:100754005A980F93007FF2DF0F910295007FEEDF2E
:100764005A9808955A9A0F93007FE8DF0F910295E3
:10077400007FE4DF5A9808950F9303E8E9DF04DD6E
:10078400E4E6F8E00591003019F0ECDFFDDCFACF87
:1007940005ECDEDFF9DCE0E7F8E0F6DC059100309B
:1007A40011F0E0DFFACF0F9108950F93009121012A
:1007B400013021F0023069F00F9108950DE8C8DF8F
:1007C400E3DCE8E7F8E0E0DC05910030A9F3CADFF8
:1007D400FACF0DE8BDDFD8DCECE7F8E0D5DC059115
:1007E400003051F3BFDFEFCF0F9300E8B1DFCCDC73
:1007F400E0E5F8E0C9DC0591003011F0B3DFFACF91
:1008040000ECA6DFC1DCEAE5F8E0BEDC05910030CF
:1008140011F0A8DFFACF0F9108950F9301E098DF4C
:10082400B3DC0F9108950F93A5E2B1E00C919ADF28
:10083400ABDCA2E2B1E00D9195DFA6DC0D9192DF75
:10084400A3DC0C918FDFA0DC0F9108955345525621
:100854004F20313A0000534552564F20323A00009F
:1008640043414C494252414E444F000053454E537C
:100874004F5200004D505500414443002F930953FB
:1008840025EB0F921F92029F001C111C012D1F903B
:100894000F900A3530F02BE2209325010A552F9151
:1008A40008952DE2209325012AE5201B022FF7CF7E
:1008B4000F932F933F934F932227332744275F931C
:1008C40054E6051B10F02395FCCF050F5AE0051BD9
:1008D40010F03395FCCF050F402F00E3A2E2B1E006
:1008E400200F2D93300F3D93400F4C935F914F9108
:1008F4003F912F910F9108950F9300E600937C0090
:1009040007E800937A000F9108950F9300917C00FB
:10091400087F00937C0000917A00006400937A00C1
:1009240000917A0004FFFCCF00917A0000690093E3
:100934007A000091780000917900009326010091DB
:100944007C00087F016000937C0000917A000064C1
:1009540000937A0000917A0004FFFCCF00917A00A2
:10096400006900937A000091780000917900009367
:0609740027010F91089518
:00000001FF
